:020000040800F2
:1000000018CA01209D4200081503000817030008C4
:100010001B0300081F030008230300080000000062
:10002000000000000000000000000000270300089E
:1000300029030008000000002B0300082D0300081E
:10004000B7420008B7420008B7420008B7420008AC
:10005000B7420008B7420008B7420008B74200089C
:10006000B7420008B742000837160008B742000838
:10007000B7420008B7420008B7420008B74200087C
:10008000B7420008B7420008B7420008B74200086C
:10009000B7420008B7420008B7420008B74200085C
:1000A000B7420008B7420008B7420008B74200084C
:1000B000B1180008B7420008B7420008B74200086C
:1000C000B7420008B7420008B7420008B74200082C
:1000D000B7420008F33A0008B7420008B7420008E8
:1000E000B7420008B7420008B7420008B74200080C
:1000F000B7420008B7420008B7420008B7420008FC
:10010000B7420008B7420008B7420008B7420008EB
:10011000B7420008B7420008B7420008B7420008DB
:10012000B7420008B7420008B7420008B7420008CB
:10013000B7420008B7420008B7420008B7420008BB
:10014000B7420008B7420008B7420008B7420008AB
:10015000B7420008B7420008B7420008B74200089B
:10016000B7420008B7420008B7420008B74200088B
:10017000B7420008B7420008B7420008B74200087B
:10018000B7420008B742000800F002F800F04CF84F
:100190000AA090E8000C82448344AAF10107DA45E2
:1001A00001D100F041F8AFF2090EBAE80F0013F0E8
:1001B000010F18BFFB1A43F001031847381C010058
:1001C000581C0100103A24BF78C878C1FAD85207E9
:1001D00024BF30C830C144BF04680C6070470000C1
:1001E0000023002400250026103A28BF78C1FBD840
:1001F000520728BF30C148BF0B607047662907F01F
:10020000BA86642906F0F680002070471FB507F013
:10021000A8FE06F06FFC04000020002107F0C0F9E2
:10022000E0601FBD10B510BD06F064FD1146FFF77C
:10023000EDFF00F023F806F082FD03B4FFF7F2FFB4
:1002400003BC03F0F1FB000008B52A480078A0B118
:100250000020284908702848028828A1294806F06B
:10026000B5F828484FF6FF731F220A21009032206C
:1002700002F03AFD012000F0E7FC08BD08B54FF49C
:10028000A06004F02BF8A82003F04CFB4FF41650AC
:1002900003F0D7FB00F080FC01F0C9FE48F21040EB
:1002A00002F046F801F00DFC9FED170A032001F063
:1002B00046FC9FED150A042001F041FC00F0ECFE25
:1002C000044614B901F0B0FA0DE022460FA10D4822
:1002D00006F07CF80B484FF6FF731F223221009086
:1002E000084602F001FD01F021FB01E003F02CFDC6
:1002F000FCE70000C4000020320000207261746539
:100300003A2564001C0100200000B442726574208C
:1003100025640000704700BFFEE700BFFEE700BF96
:10032000FEE700BFFEE77047704770477047000068
:100330000CB50020019000907648006840F48030B1
:100340007449086000BF7348006800F400300090F2
:100350000198401C0190009818B90198B0F5A04F81
:10036000F1D16C48006800F4003010B10120009019
:1003700001E0002000900098012846D165484030F7
:10038000006840F08050634940310860624800686E
:1003900040F44040604908605E48083000685D49AC
:1003A000083108600846006840F4004008600846CC
:1003B000006840F4A05008605848091F0860081FF2
:1003C000006840F08070091F086000BF5148006855
:1003D00000F000700028F9D040F205705049086024
:1003E0004C480830006820F003004A490831086092
:1003F0000846006840F00200086000BF4548083029
:10040000006800F00C000828F8D10CBD10B5454874
:10041000006840F47000434908603E48006840F0BE
:1004200001003C49086000203A4908310860394819
:1004300000683D490840374908603C48091D08608C
:10044000081F006820F48020091F0860002031493F
:100450000C310860FFF76CFF4FF0006031498039C4
:10046000086010BD70B50020002202230024022184
:10047000284D08352D6805F00C0020B1042806D061
:10048000082834D107E02A4D2A4E356033E02A4D42
:10049000284E35602FE01F4D2D1D2D68C5F380546B
:1004A0001C4D2D1D2D6805F03F0154B1224DB5FBAB
:1004B000F1F5184E361D3668C6F3881605FB06F2B0
:1004C00009E01B4DB5FBF1F5124E361D3668C6F33B
:1004D000881605FB06F20F4D2D1D2D68C5F301454D
:1004E0006D1C6B00B2FBF3F5124E356003E0104D4E
:1004F000104E356000BF00BF064D08352D68C5F3AE
:1005000003150E4E705D0B4D2D68C540094E3560CC
:1005100070BD0000003802400070004008544007E1
:10052000003C024088ED00E0FFFFF6FE10300024A2
:100530000024F4000000002000127A0004000020D3
:1005400000F4784212120A7000F4FC62D2104A7071
:10055000C206120E8A7070472DE9F04F8046894618
:1005600098F8004098F8010098F80210844205DAE3
:10057000884201DA8A4606E0824604E08C4201DACB
:100580008A4600E0A2465246844205DD884201DDEB
:100590008A4606E0824604E08C4201DD8A4600E09D
:1005A000A2465746D31B02EB070BCBEB0B1B4FEAC4
:1005B0000B1B4FF0FF0E9BFBFEFA0AEBDA7B4FEAB8
:1005C0006B0CBA4202D1002500264DE0A24215D1A3
:1005D000884208DBA0EB010A0AEB8A0A4FEACA0A42
:1005E0009AFBF3F523E0A0EB010A0AEB8A0A4FEA33
:1005F000CA0A9AFBF3FA0AF1F00518E082420AD11E
:10060000A1EB040A0AEB8A0A4FEACA0A9AFBF3FA38
:100610000AF150050BE08A4209D1A4EB000A0AEB6B
:100620008A0A4FEACA0A9AFBF3FA0AF1A005BCF15A
:10063000000F01D1002617E0BCF1780F08DCC3EBF6
:10064000031A4FEA0A1A02EB070B9AFBFBF60BE0C0
:10065000C3EB031A4FEA0A1A02EB070B40F2FF1E24
:10066000AEEB0B0B9AFBFBF6F02D02DD4FF0F00A20
:1006700005E0002D02DA4FF0000A00E0AA4689F8F2
:1006800000A0F02E02DD4FF0F00A05E0002E02DAA5
:100690004FF0000A00E0B24689F801A0BCF1F00F6B
:1006A00002DD4FF0F00A06E0BCF1000F02DA4FF075
:1006B000000A00E0E24689F802A0BDE8F08F0000E1
:1006C00030B50346C1EB0114FE4D05EB441434F87C
:1006D000130000F478442412147000F4FC64E41055
:1006E0005470C406240E947030BD2DE9F04F80463E
:1006F000894698F8005098F8010098F80210854251
:1007000005DA884201DA8A4606E0824604E08D4234
:1007100001DA8A4600E0AA465246854205DD884253
:1007200001DD8A4606E0824604E08D4201DD8A460C
:1007300000E0AA46D446A2EB0C0402EB0C0BCBEB78
:100740000B1B4FEA0B1B4FF0FF0E9BFBFEFA0AEB55
:10075000DA7B4FEA6B07624502D1002300264AE0AC
:10076000AA4215D1884208DBA0EB010A0AEB8A0AEB
:100770004FEACA0A9AFBF4F323E0A0EB010A0AEB62
:100780008A0A4FEACA0A9AFBF4FA0AF1F00318E05F
:1007900082420AD1A1EB050A0AEB8A0A4FEACA0A89
:1007A0009AFBF4FA0AF150030BE08A4209D1A5EB57
:1007B000000A0AEB8A0A4FEACA0A9AFBF4FA0AF11B
:1007C000A0030FB9002616E0782F08DCC4EB041A4A
:1007D0004FEA0A1A02EB0C0B9AFBFBF60BE0C4EB98
:1007E000041A4FEA0A1A02EB0C0B40F2FF1EAEEBA2
:1007F0000B0B9AFBFBF6F02B02DD4FF0F00A05E045
:10080000002B02DA4FF0000A00E09A4689F800A0B7
:10081000F02E02DD4FF0F00A05E0002E02DA4FF074
:10082000000A00E0B24689F801A0F02F02DD4FF087
:10083000F00A05E0002F02DA4FF0000A00E0BA46A5
:1008400089F802A0BDE8F08F024610780B78984234
:1008500015DD10784B78984211DA50788B789842F1
:100860000DDD5078CB78984209DA90780B79984270
:1008700005DD90784B79984201DA0120704700201D
:10088000FCE72DE9FF4F83B092461F464FF0000B67
:100890000321DAF80800B0FBF1F4DAF80C00B0FB41
:1008A000F1F5D7F8088041E0D7F800903AE04FF032
:1008B000000B002622E0A64207D208EB550109EB07
:1008C000060002AAFFF7FCFE07E0321B02EB08015C
:1008D00009EB540002AAFFF7F3FE01A902A8FFF7F3
:1008E00004FF514601A8FFF7AFFF08B90BF1010B58
:1008F0006019BBEB101F00D903E0761C6019B042F1
:10090000D9D800BF6019B0420BD109EB540103984C
:10091000016008EB550104980160012007B0BDE8B3
:10092000F08FA14478684845C1D8A844F86840458C
:10093000BAD80020F2E72DE9FF4F83B015461F46D5
:100940000026039C16E002AA20460499FFF7B8FE91
:1009500001A902A8FFF7C9FE294601A8FFF774FF05
:1009600000B9761C2969A8680844B6EB901F00D925
:1009700002E0641E002CE6D100BFA0460026039CC6
:1009800016E002AA20460499FFF79AFE01A902A8E0
:10099000FFF7ABFE294601A8FFF756FF00B9761C0A
:1009A0002969A8680844B6EB901F00D902E0641CCE
:1009B000F02CE6D300BFA1460026049C16E002AA54
:1009C00021460398FFF77CFE01A902A8FFF78DFEE0
:1009D000294601A8FFF738FF00B9761C6969E86865
:1009E0000844B6EB901F00D902E0641E002CE6D14B
:1009F00000BFA2460026049C16E002AA21460398E6
:100A0000FFF75EFE01A902A8FFF76FFE294601A8C5
:100A1000FFF71AFF00B9761C6969E8680844B6EB6D
:100A2000901F00D902E0641CF02CE6D300BFA3465F
:100A3000002608EB0900400838600AEB0B0040086C
:100A40007860A9EB0800B860ABEB0A00F860A9EB8E
:100A50000800A968884212D9ABEB0A00E96888420D
:100A60000DD9A9EB08002969884208D2ABEB0A002E
:100A70006969884203D2012007B0BDE8F08F0020E9
:100A8000FAE77FB506460C460F48006850BB0F4B8F
:100A900032460F490F48FFF7F4FE18B101200A490A
:100AA00008601FE0002009490860F020486000202D
:100AB0008860F020C8600B46324605490548FFF7BC
:100AC000E0FE09E03A0100201C0000202000002088
:100AD000180000201400002020B100202A490860DE
:100AE00004B070BD29480068009029480068019052
:100AF000002506E06B463246DDE90001FFF71BFFEB
:100B00006D1C042DF6D36B463246DDE90001FFF77C
:100B100012FF90B31D4B009818601D4B0198186090
:100B200000982060019860600298A0600398E060DF
:100B30000120154B1860029B0098A0EB5300154B49
:100B40001860029B009800EB5300124B5860039B07
:100B50000198A0EB53000F4B9860039B019800EBAA
:100B600053000C4BD86028210022206808442060E4
:100B70006068104460600120B2E7FFE7002002498E
:100B8000086000BFACE700001C000020140000203B
:100B900018000020200000201CB50121084603F0A9
:100BA00031FFC020009001208DF8040000208DF856
:100BB000060003208DF8050001208DF80700694626
:100BC000304803F081FCC0212E4803F0F9FC1CBD25
:100BD00020B1012809D0FF2815D10DE02949496924
:100BE00021F04001274A51610EE02649496921F070
:100BF0008001244A516107E02249496921F0C0017E
:100C0000204A516100E000BF00BF704720B10128B9
:100C100009D0FF2815D10DE01A49496941F040017A
:100C2000184A51610EE01749496941F08001154A9F
:100C3000516107E01349496941F0C001114A51610E
:100C400000E000BF00BF704720B1012809D0FF2895
:100C500015D10DE00B49496981F04001094A516104
:100C60000EE00849496981F08001064A516107E0B8
:100C70000449496981F0C001024A516100E000BFA6
:100C800000BF7047000002401CB50121132003F093
:100C9000B9FE00208DF8040003208DF80500012026
:100CA0008DF80700102000906946F84803F00CFC0E
:100CB0001021F64803F084FC4FF4FF400090694691
:100CC000F34803F001FC01208DF8040003208DF8A7
:100CD000050000208DF8060001208DF807004FF474
:100CE000F84000906946EB4803F0EEFB4FF4F84102
:100CF000E84803F065FC1CBD10B504213A2000F063
:100D00003AFCD021402000F036FC1421122000F0E3
:100D100032FC8021322000F02EFC1621172000F03A
:100D20002AFC0421182000F026FC0221192000F0E2
:100D300022FC7B211A2000F01EFC0621032000F07B
:100D40001AFC0C21084600F016FC0221152000F0C8
:100D500012FC00213E2000F00EFC3A21702000F031
:100D60000AFC0121712000F006FC1121722000F024
:100D700002FC0021732000F0FEFB0221A22000F003
:100D8000FAFB8121112000F0F6FB20217A2000F0EF
:100D9000F2FB1C217B2000F0EEFB28217C2000F0E0
:100DA000EAFB3C217D2000F0E6FB55217E2000F08F
:100DB000E2FB68217F2000F0DEFB7621802000F03E
:100DC000DAFB8021812000F0D6FB8821822000F010
:100DD000D2FB8F21832000F0CEFB9621842000F0EF
:100DE000CAFBA321852000F0C6FBAF21862000F0BE
:100DF000C2FBC421872000F0BEFBD721882000F071
:100E0000BAFBE821892000F0B6FBE721132000F0AF
:100E1000B2FB0021084600F0AEFB0021102000F0DC
:100E2000AAFB00210D2000F0A6FB2021142000F0D9
:100E3000A2FB0521A52000F09EFB0721AB2000F0BE
:100E40009AFB7521242000F096FB6321252000F0F9
:100E500092FBA521262000F08EFB78219F2000F038
:100E60008AFB6821A02000F086FB0321A12000F06E
:100E700082FBDF21A62000F07EFBDF21A72000F00F
:100E80007AFBF021A82000F076FB9021A92000F049
:100E900072FB9421AA2000F06EFBE521132000F0E4
:100EA0006AFB61210E2000F066FB4B210F2000F051
:100EB00062FB0221162000F05EFB37211E2000F0AD
:100EC0005AFB0221212000F056FB9121222000F044
:100ED00052FB0721292000F04EFB0B21332000F0AC
:100EE0004AFB0B21352000F046FB1D21372000F086
:100EF00042FB7121382000F03EFB2A21392000F00E
:100F00003AFB78213C2000F036FB40214D2000F0D8
:100F100032FB20214E2000F02EFB5D21692000F0E5
:100F20002AFB40216B2000F026FB1921742000F0E1
:100F300022FB4F218D2000F01EFB00218E2000F0AF
:100F40001AFB00218F2000F016FB0021902000F0FA
:100F500012FB0021912000F00EFB0021922000F0F6
:100F60000AFB0021962000F006FB80219A2000F069
:100F700002FB8421B02000F0FEFA0C21B12000F029
:100F8000FAFA0E21B22000F0F6FA8221B32000F026
:100F9000F2FA0A21B82000F0EEFA1421432000F002
:100FA000EAFAF021442000F0E6FA3421452000F06E
:100FB000E2FA5821462000F0DEFA2821472000F00E
:100FC000DAFA3A21482000F0D6FA8821592000F0B8
:100FD000D2FA88215A2000F0CEFA44215B2000F09A
:100FE000CAFA67215C2000F0C6FA49215D2000F0B2
:100FF000C2FA0E215E2000F0BEFA0421642000F047
:10100000BAFA2021652000F0B6FA0521662000F02A
:10101000B2FA0421942000F0AEFA0821952000F0E5
:10102000AAFA0A216C2000F0A6FA55216D2000F0E2
:10103000A2FA80214F2000F09EFA8021502000F07B
:101040009AFA0021512000F096FA2221522000F055
:1010500092FA5E21532000F08EFA8021542000F095
:101060008AFA11216E2000F086FA9F216F2000F08D
:1010700082FA0021552000F07EFA4021562000F02F
:101080007AFA9E21582000F076FA10BD0000024046
:10109000001002400004024010B5FFF7F5FD00F01B
:1010A0008DF98021122000F066FA08B1012010BDF0
:1010B000322002F099FC0B2000F07CFA0446732CDD
:1010C00001D00220F3E70A2000F074FA0446762CDF
:1010D00001D00220EBE7FFF70FFE0020E7E710B595
:1010E0000446052C45D2DFE804F003101D2A370022
:1010F000E721132000F03FFA0021012000F03BFA25
:101100000021022000F037FA33E0E521132000F03F
:1011100032FA5A21012000F02EFA5C21022000F060
:101120002AFA26E0E521132000F025FA58210120B3
:1011300000F021FA6021022000F01DFA19E0E521FB
:10114000132000F018FA8421012000F014FA4C2139
:10115000022000F010FA0CE0E521132000F00BFA59
:101160009621012000F007FA4021022000F003FA46
:1011700000BF00BF10BD2DE9F041044680252226A6
:101180005E27A01C052818D2DFE800F003070B0F2C
:101190001300402511262F270FE066251B264B271D
:1011A0000BE0802522265E2707E099252826712757
:1011B00003E0C02533268D2700BF00BF29464F20FE
:1011C00000F0D9F92946502000F0D5F9002151202E
:1011D00000F0D1F93146522000F0CDF939465320C4
:1011E00000F0C9F92946542000F0C5F99E21582085
:1011F00000F0C1F9BDE8F08170B504460025A01CDF
:1012000005280ED2DFE800F0030507090B00B02522
:1012100007E0982505E0002503E0182501E03025CA
:1012200000BF00BF2946552000F0A5F970BD70B57C
:1012300004464025A01C05280ED2DFE800F0030577
:1012400007090B00302507E0382505E0402503E0BD
:10125000502501E0602500BF00BF2946562000F060
:101260008AF970BD10B50446072C60D2DFE804F09F
:1012700004111E2B3845520004213A2000F07BF95E
:101280008021672000F077F9C021682000F073F911
:101290004DE024213A2000F06EF98021672000F013
:1012A0006AF98021682000F066F940E014213A20B4
:1012B00000F061F98021672000F05DF9802168204D
:1012C00000F059F933E014213A2000F054F980215C
:1012D000672000F050F9C021682000F04CF926E0AA
:1012E00014213A2000F047F94021672000F043F92B
:1012F0004021682000F03FF919E014213A2000F065
:101300003AF9C021672000F036F98021682000F00A
:1013100032F90CE014213A2000F02DF94021672029
:1013200000F029F9A021682000F025F900BF00BFD6
:1013300010BD2DE9F04705460E469046994605EB4F
:1013400048001FFA80FA06EB490087B2B7F5447FE0
:1013500002DDA7F5447087B2032000F02BF90446A4
:1013600004F0F0040AF00301284661F39F000443EF
:101370002146032000F0FFF8C5F38701192000F093
:10138000FAF8CAF387011A2000F0F5F8322000F0CD
:1013900011F9044604F0C00407F00701304661F378
:1013A000DF000443C6F3C701172000F0E4F8C7F3D9
:1013B000C701182000F0DFF8BDE8F0871CB5012157
:1013C000042003F01FFB0C20009001208DF8040086
:1013D00000208DF8060003208DF8050001208DF80F
:1013E00007006946874803F06FF80C21854803F031
:1013F000E7F81CBD10B50120834908608349C1F896
:101400008802322002F0A8FA00207F4908603220CA
:1014100002F0A2FA00207D49C1F8880210BD10B583
:10142000002079490860322002F096FA01207749BD
:10143000C1F88802322002F08FFA01207249086058
:10144000322002F089FA10BD10B5322002F084FA81
:1014500001206D4908606D49C1F88802322002F010
:101460007BFA00206849091F0860322002F074FAF4
:1014700000206649C1F88C02322002F06DFA10BDDE
:1014800070B5044600261BE004F0800018B101206E
:101490005D49086002E000205B4908606006040EB8
:1014A000322002F059FA01205749091F0860322002
:1014B00002F052FA00205549C1F88802701CC6B2E9
:1014C000082EE1DB4F48006820F0C0004D4908605D
:1014D000322002F041FA01204B49091F08603220F6
:1014E00002F03AFA4948D0F80C0208B1012500E0B0
:1014F000002500204449091F08604248006820F088
:10150000C000404908600846006840F0400008609C
:10151000284670BD70B500243A48006820F0C0002D
:1015200038490860082517E0322002F015FA01203A
:101530003549091F08606006040E3448D0F80C02D3
:1015400008B1601CC4B2322002F006FA00202E4915
:10155000091F0860681EC5B2002DE5DC2948006837
:1015600020F0C000274908600846006840F04000AD
:101570000860204670BD70B505460C460026FFF792
:1015800039FF4220FFF77CFF00B10126642002F002
:10159000E3F92846FFF774FF00B10126642002F04A
:1015A000DBF92046FFF76CFF00B10126FFF737FF9C
:1015B000304670BD70B504460025FFF71BFF422082
:1015C000FFF75EFF642002F0C7F92046FFF758FFDF
:1015D000642002F0C1F9FFF722FF642002F0BCF999
:1015E000FFF708FF4320FFF74BFF642002F0B4F938
:1015F000FFF790FF0546FFF727FFFFF710FF28468C
:1016000070BD0000000802408C02414200004142CF
:1016100010B5024600200BE000EB4003964C04EBB3
:10162000C3039A6000EB400304EBC303D960401C82
:101630000528F1D310BD2DE9F04F85B0102003F03F
:101640001DFE01287DD1102003F023FE8B48007879
:10165000401C8A49087008460078012813D102F01E
:101660007BF9002086490860012002F075F901200D
:101670008449C1F8B40202F06FF9012080490839A9
:10168000086002F069F97D4800780228DAD100206C
:101690007B4908607C48006820F010007A490860A7
:1016A00000207849C1F8B8024FF48060774908807B
:1016B000891E0880891C0880891E088001207049C5
:1016C000091D086000206F49C1F8B00200210846DA
:1016D00000F0B1FD4FF028084FF48C7A4FF000096C
:1016E0004FF0F00B002438E0002531E04FF480602B
:1016F00066490880891E088065480069C0F3C716DE
:101700000815891C0880891E088061480069C0F39B
:10171000C717304600F052FC384600F04FFC4545F4
:1017200014DB554512DA4C4510DB5C450EDA47EA0E
:101730000620A4EB0901C1EB0111564A02EB41114D
:1017400000E06EE0A5EB080221F81200681C85B2EB
:10175000B5F5A07FCADB601C84B2F02CC4DB00218D
:10176000084600F068FD4C48007860B94B4909789C
:1017700001EB4101404A02EBC10001A9FFF781F9E9
:101780004749086005E001A94648FFF77AF944494E
:1017900008604348006888B3434801A991E80E10E7
:1017A000A0E80E104FF47840DFF8FCC00090BCF8C1
:1017B00004C0DFF8F4E0DEF80CE0ACEB5E0C1FFADE
:1017C0008CF1DFF8E4C0BCF800C0DFF8DCE0DEF844
:1017D00008E0ACEB5E0C1FFA8CF0DFF8CCC0BCF874
:1017E0000CC01FFA8CF3DFF8C0C0BCF808C01FFAA9
:1017F0008CF200F027FF0020FFF726FA0120204995
:10180000091F086000201D49087028480088401CF6
:10181000264908801C48006840F010001A490860FA
:1018200000BF05B0BDE8F08F0EB50121880303F0BD
:1018300043F90421002003F04AFA1020019000200F
:101840008DF8080008208DF8090001208DF80A00A5
:1018500001A803F0ADFC0A208DF8000002208DF8ED
:10186000010000208DF8020001208DF80300684679
:1018700002F039FD0EBD00004C00002030000020B9
:10188000B482404200804042003C01401A040240C1
:10189000001002403A0100203900002038000020EA
:1018A00034000020A0C301203C00002032000020B2
:1018B00010B50121880704F05AFAB0B30121880756
:1018C00004F066FA46480088322190FBF1F201FBF1
:1018D000120020B94348007808B100F00EFA4048E1
:1018E00000884FF4FA7190FBF1F201FB120008B985
:1018F00002F024FC3A4800884FF47A7190FBF1F230
:1019000001FB120030B938480088384908800020AF
:101910003549088032480088401C80B23049088030
:10192000B0F57A7F01DB0020088010BD1FB50121D2
:10193000084603F0B0F840F2E73002905320ADF8CB
:1019400004000020ADF80C00ADF8060001A94FF02E
:10195000804003F054FD01221146900704F0F0F995
:101960000121880703F0D4FD1C208DF80000012020
:101970008DF8010002208DF8020001208DF803008F
:10198000684602F0B0FC1FBD1FB50121042003F022
:1019900082F842F20F7002905320ADF8040000204C
:1019A000ADF80C00ADF8060001A9114803F027FDC1
:1019B000012211460E4804F0C3F901210C4803F03E
:1019C000A7FD1E208DF8000001208DF801008DF884
:1019D00002008DF80300684602F085FC1FBD000080
:1019E000C8000020C500002032000020C6000020F2
:1019F000000800401CB50121022003F003F8022278
:101A00000021F64802F0EBFD02220121F34802F02A
:101A1000E6FD02208DF8040003208DF8050000206B
:101A20008DF8060001208DF8070000906946EB480C
:101A300002F04AFD022000906946E84802F044FDA9
:101A40001CBD00B589B00121022003F024F844F642
:101A50001F6007905320ADF818000020ADF820005B
:101A6000ADF81A008DF8220006A9DD4803F0C7FC86
:101A70006020ADF804000120ADF806000020ADF8AC
:101A80001000D8480068039001A9D54803F0D2FDA2
:101A90000821D34803F0EBFED3480068039001A966
:101AA000CF4803F02DFE0821CD4803F0E9FE0121C7
:101AB000CB4803F00FFD0121C94803F029FD09B00F
:101AC00000BD10B5FFF796FFFFF7BBFF10BD012863
:101AD00006D0022808D003280AD0042810D10BE031
:101AE000BF4A343211600CE0BD4A3832116008E060
:101AF000BB4A3C32116004E0B94A4032116000E058
:101B000000BF00BF70470146012906D0022908D056
:101B100003290AD0042910D10BE0B1483430006801
:101B20007047AF4838300068FAE7AD483C3000688D
:101B3000F6E7AB4840300068F2E70020F0E770B508
:101B40002DED088B0446B0EE408A18EE100A06F020
:101B500097F941EC1B0B9FEDA50B53EC102B05F0F7
:101B60000FFE41EC1A0B9FEDA30B53EC102B05F06D
:101B70005FFD41EC190B9FEDA10B53EC102B51ECC9
:101B8000190B05F095FF41EC1A0B05F051FF0546C6
:101B900029462046FFF79BFFBDEC088B70BD70B552
:101BA0002DED088B04462046FFF7ADFF054628467D
:101BB00005F06BFF41EC1B0B9FED920B53EC102BD0
:101BC00005F076FF41EC1A0B9FED8C0B53EC102BBC
:101BD00005F0D6FD41EC190B9FED860B53EC102B55
:101BE00051EC190B06F062F841EC1A0B9FED7F0BDC
:101BF00053EC102B05F05CFF41EC1B0B05F0E6FCF1
:101C000008EE100AB5EEC08AF1EE10FA04D29FED8C
:101C10007F0AB0EE408A0AE09FED7D0AB4EEC08AEA
:101C2000F1EE10FA03DD9FED7A0AB0EE408AB0EED5
:101C3000480ABDEC088B70BD10B52DED028B044633
:101C4000F0EE408A2046FFF7AAFF30EE280AB0EEF9
:101C5000408AB5EEC08AF1EE10FA04D29FED6B0A0D
:101C6000B0EE408A0AE09FED6A0AB4EEC08AF1EE57
:101C700010FA03DD9FED660AB0EE408AB0EE480A26
:101C80002046FFF75CFFBDEC028B10BDB0EE401AA2
:101C9000F0EE601A9FED5D0AB0EE402A31EE610A67
:101CA000F0EE400AB2EE040AF4EEC00AF1EE10FAC9
:101CB0000CD2BAEE040AF4EEC00AF1EE10FA05DD19
:101CC0005448C0ED000A9FED510A7047524890ED0C
:101CD000000A20EE200A4F48D0ED002A70EEE22ADA
:101CE0004E4890ED003A03EE220AB0EE402A4948F1
:101CF000C0ED000AB0EE420AE7E710B52DED028B09
:101D00004748006810B9BDEC028B10BD454890ED06
:101D1000000AB8EE400AF0EE400A9FED430AFFF7D2
:101D2000B5FF4248D0ED000A30EE208AB3EE040A37
:101D3000B4EEC08AF1EE10FA04D2B3EE040A80EDDC
:101D4000000A0FE09FED380AB4EEC08AF1EE10FAF7
:101D500005DD9FED350A354880ED000A02E0334885
:101D600080ED008A314890ED000A0320FFF7E7FE7E
:101D70002C4890ED010AB8EE400AF0EE400A9FEDC3
:101D80002C0AFFF783FF2B48D0ED000A30EEC00A83
:101D9000B0EE408AB3EE040AB4EEC08AF1EE10FA57
:101DA00004D2B3EE040A80ED000A0FE09FED1E0A94
:101DB000B4EEC08AF1EE10FA05DD9FED1B0A1D4856
:101DC00080ED000A02E01B4880ED008A194890ED82
:101DD000000A0420FFF7B3FE00BF94E700040240AE
:101DE00000040040DC000020E000002000000000B3
:101DF000000032400000000000000440000000002D
:101E000000006940000000000000F03F00000000FA
:101E100000003443EC000020E4000020E800002033
:101E2000340000203C00002000002043CC000020B3
:101E30000000F042D00000201CB50121022002F079
:101E4000E1FD4FF46070009001208DF80400002047
:101E50008DF8060003208DF8050001208DF807009D
:101E60006946FE4802F030FB1CBD0021082115E048
:101E700000F0800222B12022F84B18331A8003E0D0
:101E80002022F64B1A331A800822F44B1A331A8098
:101E90009B1E1A804206100E4A1ED1B20029E7DCB2
:101EA0007047024600BF108900F002000028FAD0F7
:101EB000918100BF108900F001000028FAD09089BC
:101EC000C0B2704701F0070102884FF6C7731A408D
:101ED0000280028842EAC1020280028842F0400287
:101EE0000280704700B587B00121022002F08AFD10
:101EF0000121080302F0E0FD3820059002208DF852
:101F0000180000208DF81A0003208DF81900012018
:101F10008DF81B0005A9D14802F0D6FA052203214D
:101F2000CE4802F05CFB05220421CC4802F057FBAE
:101F300005221146C94802F052FB0121080302F0B4
:101F400010FE00214FF4805002F00BFE0020ADF88F
:101F500000004FF48270ADF802000020ADF80400DC
:101F60000220ADF806000120ADF808004002ADF8EF
:101F70000A000020ADF80C00ADF80E000720ADF807
:101F800010006946B64804F02BF80121B44804F06B
:101F900021F907B000BD00B503464FF40070AF490A
:101FA0001A310880802008801946AD48FFF779FF74
:101FB0004FF40070A9491831088000BD00B50346F0
:101FC0004FF40070A5491A3108808020891E0880CE
:101FD0001946A348FFF765FF4FF400709F49183179
:101FE000088000BD10B504462012FFF7E7FFE0B2FD
:101FF000FFF7E4FF10BD30B505460C462846FFF755
:10200000CAFF2046FFF7EEFF30BD10B54FF48070D9
:1020100092491A310880642001F0E6FC4FF4807088
:102020008E4918310880322001F0DEFC10BD10B559
:10203000FFF758FFFFF700FFFFF7E7FFCB20FFF7A1
:10204000AAFF3920FFF7BAFF2C20FFF7B7FF0020C7
:10205000FFF7B4FF3420FFF7B1FF0220FFF7AEFF18
:10206000CF20FFF798FF0020FFF7A8FFC120FFF760
:10207000A5FF3020FFF7A2FFE820FFF78CFF8520A7
:10208000FFF79CFF0020FFF799FF7820FFF796FFEE
:10209000EA20FFF780FF0020FFF790FF0020FFF706
:1020A0008DFFED20FFF777FF6420FFF787FF032008
:1020B000FFF784FF1220FFF781FF8120FFF77EFFEB
:1020C000F720FFF768FF2020FFF778FFC020FFF719
:1020D00062FF2320FFF772FFC120FFF75CFF102093
:1020E000FFF76CFFC520FFF756FF3E20FFF766FFA6
:1020F0002820FFF763FFC720FFF74DFF8620FFF77B
:102100005DFF3620FFF747FFE820FFF757FF3A2033
:10211000FFF741FF5520FFF751FFB120FFF73BFFCD
:102120000020FFF74BFF1820FFF748FFB620FFF70E
:1021300032FF0820FFF742FF8220FFF73FFF2720F2
:10214000FFF73CFFF220FFF726FF0020FFF736FFE6
:102150002620FFF720FF0120FFF730FFE020FFF7E8
:102160001AFF0F20FFF72AFF3120FFF727FF2B2050
:10217000FFF724FF0C20FFF721FF0E20FFF71EFFC3
:102180000820FFF71BFF4E20FFF718FFF120FFF795
:1021900015FF3720FFF712FF0720FFF70FFF102072
:1021A000FFF70CFF0320FFF709FF0E20FFF706FFE4
:1021B0000920FFF703FF0020FFF700FFE120FFF7F2
:1021C000EAFE0020FFF7FAFE0E20FFF7F7FE1420CC
:1021D000FFF7F4FE0320FFF7F1FE1120FFF7EEFEFC
:1021E0000720FFF7EBFE3120FFF7E8FEC120FFF7E5
:1021F000E5FE4820FFF7E2FE0820FFF7DFFE0F2094
:10220000FFF7DCFE0C20FFF7D9FE3120FFF7D6FEEA
:102210003620FFF7D3FE0F20FFF7D0FE1120FFF787
:10222000BAFE782001F0E0FB2920FFF7B4FE2C2055
:10223000FFF7B1FE10BD30B505460C462A20FFF76A
:10224000AAFE2846FFF7CEFE2B20FFF7A4FE20466D
:10225000FFF7C8FE2C20FFF79EFE30BD00040240B1
:1022600000300140F0B507460C4615461E462A20B0
:10227000FFF791FE3846FFF7B5FE2846FFF7B2FE9E
:102280002B20FFF788FE2046FFF7ACFE3046FFF715
:10229000A9FE2C20FFF77FFEF0BD70B505460E4667
:1022A000144631462846FFF7C6FF2046FFF79AFE40
:1022B00070BD2DE9F84F05460E4631462846FFF71A
:1022C000BAFF4FF400705D4908802E20FFF763FECF
:1022D00080205A49891E0880891C0880FF2158489F
:1022E000FFF7DFFDFF215648FFF7DBFD0746FF2123
:1022F0005348FFF7D6FD0446FF215148FFF7D1FDB3
:1023000080464FF400704D49891E088078064FEAD8
:102310001069A2464FEA48604FEA106B4FEA092065
:1023200040EA4A1040EAEB0000900098BDE8F88FC0
:1023300030B50446EF2340F23F1200210846FFF774
:1023400091FF4FF400703D4908808020891E08806D
:10235000002508E021123A48FFF7A3FDE1B2384812
:10236000FFF79FFD6D1CB5F5963FF3D34FF400705A
:102370003249891E088030BD2DE9F04105460E46E0
:102380001446EF2340F23F1231462846FFF76AFF1A
:1023900080202A49891E0880002711E04FF000089C
:1023A00009E021122648FFF77CFDE1B22448FFF73F
:1023B00078FD08F10108C5F5A0704045F1D87F1CF3
:1023C000C6F1F000B842E9D8BDE8F0812DE9F04748
:1023D00004460D4616461F46DDF82080E819401ECB
:1023E00083B2A019401E82B229462046FFF73AFF69
:1023F00080201249891E0880A94612E0A2460BE0FF
:102400004FEA28210E48FFF74CFD08F0FF010C4869
:10241000FFF747FD0AF1010A30195045F0D809F1DC
:10242000010978194845E9D8EF2340F23F1200210D
:102430000846FFF717FFBDE8F08700001A040240C6
:102440000030014030B5014601F01F04C1F34513CF
:10245000CA0AE50205EB43151544A8B230BD2DE9C3
:10246000F04706460F4690469A46002445464FEAF6
:102470004800C0F103094AE07A1991B2321990B2CA
:102480005246FFF70AFF7A1991B2321B90B25246B8
:10249000FFF703FF7A1B91B2321990B25246FFF751
:1024A000FCFE7A1B91B2321B90B25246FFF7F5FE4A
:1024B0003A1991B2721990B25246FFF7EEFE3A19EC
:1024C00091B2721B90B25246FFF7E7FE3A1B91B2EF
:1024D000721990B25246FFF7E0FE3A1B91B2721B9E
:1024E00090B25246FFF7D9FEB9F1000F05DA042089
:1024F00000FB049000F1060907E0601B042101FBCA
:10250000009000F10A09681E85B2601C84B2AC42DA
:10251000B2DBAC4237D17A1991B2321990B252463D
:10252000FFF7BBFE7A1991B2321990B25246FFF70B
:10253000B4FE7A1B91B2321990B25246FFF7ADFE4B
:102540007A1B91B2321B90B25246FFF7A6FE3A199F
:1025500091B2721990B25246FFF79FFE3A1991B2AA
:10256000721B90B25246FFF798FE3A1B91B2721955
:1025700090B25246FFF791FE3A1B91B2721B90B295
:102580005246FFF78AFEBDE8F0872DE9FF4F83B082
:102590008046894649464046FFF74DFE0598A0EB28
:1025A00008050698A0EB0906002D02DB0120029029
:1025B00003E04FF0FF3002906D42002E02DB01205D
:1025C000019003E04FF0FF30019076424FEA450A58
:1025D0004FEA460BB54219DDABEB0504002712E0CC
:1025E00049464046109AFFF758FE002C05DBA4EB45
:1025F0000A04019848441FFA80F95C440298404458
:102600001FFA80F87F1CAF42EADD18E0AAEB06044F
:10261000002712E049464046109AFFF73EFE002C84
:1026200005DBA4EB0B04029840441FFA80F85444E5
:10263000019848441FFA80F97F1CB742EADD07B0D1
:10264000BDE8F08F2DE9F84304460D4616461F46B7
:10265000DDF82080A01982B22B4629462046CDF80D
:102660000080FFF792FFE9198BB2A1198AB2A11974
:1026700088B22946CDF80080FFF787FFE81983B2BA
:10268000A01982B2E81981B22046CDF80080FFF788
:102690007CFFE81983B2224629462046CDF8008007
:1026A000FFF773FFBDE8F8832DE9F84305460C46B4
:1026B00016461F46DDF82080B8F1000F39D14EF6DE
:1026C0007D700090A81982B2234621462846FFF764
:1026D0005CFF42F6651004F1010CBC441FFA8CF358
:1026E00005EB060CACF1010C1FFA8CF204F1010CA5
:1026F0001FFA8CF105EB060CACF1010C00901FFAEF
:102700008CF0FFF742FF42F665100090E01983B2AB
:10271000A81982B2E01981B22846FFF736FF4EF6BB
:102720007D700090E01983B22A4621462846FFF7C3
:102730002CFFB8F1010F39D142F665100090A819AD
:1027400082B2234621462846FFF71FFF4EF67D70D2
:1027500004F1010CBC441FFA8CF305EB060CACF140
:10276000010C1FFA8CF204F1010C1FFA8CF105EB3D
:10277000060CACF1010C00901FFA8CF0FFF705FF7E
:102780004EF67D700090E01983B2A81982B2E0196C
:1027900081B22846FFF7F9FE42F665100090E01975
:1027A00083B22A4621462846FFF7EFFEB8F1020F12
:1027B00039D14FF6FF700090A81982B22346214606
:1027C0002846FFF7E2FE4FF6FF7004F1010CBC440F
:1027D0001FFA8CF305EB060CACF1010C1FFA8CF21E
:1027E00004F1010C1FFA8CF105EB060CACF1010CA5
:1027F00000901FFA8CF0FFF7C8FE4FF6FF700090B4
:10280000E01983B2A81982B2E01981B22846FFF715
:10281000BCFE4FF6FF700090E01983B22A462146B5
:102820002846FFF7B2FEBDE8F883F8B504460D462A
:1028300016461F4644F208202B4632462946009091
:102840002046FFF7A2FE48F210406A1C93B291B2F4
:10285000621C009090B23246FFF797FE44F20820C7
:102860003B462246294600902046FFF78EFE48F25E
:102870001040631C9AB26B1C99B2631C009098B212
:102880003B46FFF782FE4FF6FF703B463246394625
:1028900000902046FFF779FE4FF6FF703B46324628
:1028A000294600903046FFF770FEF8BDF8B50646A1
:1028B0000F4614461D464FF6FF703B4622463946EA
:1028C00000903046FFF761FE4FF6FF702B46324610
:1028D000394600903046FFF758FE48F210406A1E15
:1028E00093B291B2721C009090B22246FFF74DFE57
:1028F00044F208202B462246294600903046FFF736
:1029000044FE48F21040631E9AB27B1C99B2631ECB
:10291000009098B22B46FFF738FE44F208202B4671
:102920002246394600902046FFF72FFEF8BD2DE9DC
:10293000F84F0746884693469A46DDF82890009758
:10294000B7E099F8000080283DDA99F800600D2E74
:1029500005D1009F08F110001FFA80F830E0202E0A
:1029600003DDA6F1200086B200E00026002422E06C
:1029700000251CE004EB0610FA49085C802129417F
:10298000084040B108EB040291B27A1990B25A465D
:10299000FFF783FC09E0D34507D008EB040291B2AE
:1029A0007A1990B25246FFF778FC681CC5B2082D20
:1029B000E0DB601CC4B2102CDADB07F1080087B240
:1029C00009F1010975E000266CE0C6EBC60000EBDA
:1029D0008000E549085C99F80010884260D1C6EB98
:1029E000C60000EB8000E0490844407899F80110E7
:1029F000884255D1002451E0002521E0C6EBC600F5
:102A000000EB8000D8490844C01C10F81410802046
:102A10002841014041B108EB040291B27A1990B209
:102A20005A46FFF73AFC09E0D34507D008EB040209
:102A300091B27A1990B25246FFF72FFC681CC5B2CA
:102A4000082DDBDB002525E0C6EBC60000EB80008F
:102A5000C5490844C01C012101EB4401405C8021B0
:102A60002941084048B108EB040291B27A190832B2
:102A700090B25A46FFF711FC0AE0D34508D008EBA4
:102A8000040291B27A19083290B25246FFF705FC5F
:102A9000681CC5B2082DD7DB601CC4B2102CABDBA0
:102AA000701C86B2642E90DB09F1020907F1100058
:102AB00087B299F8000000287FF443AFBDE8F88F93
:102AC0002DE9F05F06460F4693469946DDF828A0AB
:102AD00003E19AF8000080285EDA9AF80080B8F1E5
:102AE000200F04DDA8F120001FFA80F801E04FF06C
:102AF0000008002548E000241DE008EB4800000124
:102B000000EB45009949095C80202041014039B122
:102B10007A1991B2321990B25A46FFF7BEFB08E01B
:102B2000CB4506D07A1991B2321990B24A46FFF7D6
:102B3000B4FB601CC4B2082CDFDB002420E008EBEF
:102B40004800000100EB4500401C8849085C8021DA
:102B50002141084040B17A1991B23219083290B23D
:102B60005A46FFF79AFB09E0CB4507D07A1991B294
:102B70003219083290B24A46FFF78FFB601CC4B28C
:102B8000042CDCDB681CC5B2182DB4DB0AF1010A89
:102B900006F10C0086B2A0E04FF0000894E0C8EB0C
:102BA000081000EB80007249085C9AF80010884217
:102BB00073D1C8EB081000EB80006D4908444078E1
:102BC0009AF8011088427BD1002577E0002420E0AC
:102BD000C8EB081000EB800065490844C01C05EBF9
:102BE0004501415C80202041014039B17A1991B200
:102BF000321990B25A46FFF750FB08E0CB4506D099
:102C00007A1991B2321990B24A46FFF746FB601C1E
:102C1000C4B2082CDCDB002423E0C8EB081000EB76
:102C2000800053490844C01C05EB4501491C415C28
:102C300080202041014041B17A1991B23219083205
:102C400090B25A46FFF729FB09E0CB4507D07A1925
:102C500091B23219083290B24A46FFF71EFB601C4F
:102C6000C4B2082CD9DB002424E0C8EB081000EB28
:102C700080003F490844C01C05EB4501891C415CAC
:102C800080202041014049B17A1991B232191032A5
:102C900090B25A46FFF701FB0AE011E0CB4507D09E
:102CA0007A1991B23219103290B24A46FFF7F5FA0A
:102CB000601CC4B2082CD8DB681CC5B2182D85DB9B
:102CC00008F101001FFA80F8B8F1640FFFF667AF52
:102CD0000AF1020A06F1180086B29AF800000028EC
:102CE0007FF4F7AEBDE8F09F2DE9F05F06460F4692
:102CF00092469946DDF828B033E19BF80000802821
:102D000066DA9BF80080B8F1200F04DDA8F12000FE
:102D10001FFA80F801E04FF00008002550E0002481
:102D20001CE04FEA881000EB45001249095C802046
:102D30002041014039B17A1991B2321990B252460C
:102D4000FFF7ABFA08E0CA4506D07A1991B23219FA
:102D500090B24A46FFF7A1FA601CC4B2082CE0DB2F
:102D6000002429E07A7F00087F1501086B850008A0
:102D7000A21501083C9700084FEA881000EB4500B7
:102D8000401CFE49095C80202041014041B17A1974
:102D900091B23219083290B25246FFF77EFA09E03A
:102DA000CA4507D07A1991B23219083290B24A4610
:102DB000FFF773FA601CC4B2082CDDDB681CC5B2D7
:102DC000202DACDB0BF1010B06F1100086B2C8E040
:102DD0004FF00008BCE008EB480000EBC810E849E1
:102DE000085C9BF80010884272D108EB480000EBA9
:102DF000C810E349084440789BF801108842F3D199
:102E000000259EE000241FE008EB480000EBC810FE
:102E1000DB490844C01C10F82500802121410840EE
:102E200038B17A1991B2321990B25246FFF735FA99
:102E300008E0CA4506D07A1991B2321990B24A46D2
:102E4000FFF72BFA601CC4B2082CDDDB002423E062
:102E500008EB480000EBC810C9490844C01C012118
:102E600001EB8501415C80202041014041B17A198C
:102E700091B23219083290B25246FFF70EFA09E0C9
:102E8000CA4507D07A1991B23219083290B24A462F
:102E9000FFF703FA601CC4B2082CD9DB002424E03D
:102EA00008EB480000EBC810B5490844C01C0221DB
:102EB00001EB8501415C80202041014049B17A1934
:102EC00091B23219103290B25246FFF7E6F90AE099
:102ED0003AE0CA4507D07A1991B23219103290B24D
:102EE0004A46FFF7DAF9601CC4B2082CD8DB00248C
:102EF00023E008EB480000EBC810A1490844C01CBF
:102F0000032101EB8501405C80212141084040B153
:102F10007A1991B23219183290B25246FFF7BDF9C0
:102F200009E0CA4507D07A1991B23219183290B225
:102F30004A46FFF7B2F9601CC4B2082CD9DB681C02
:102F4000C5B2202DFFF65EAF08F101001FFA80F830
:102F5000B8F1640FFFF63FAF0BF1020B06F1200052
:102F600086B29BF8000000287FF4C7AEBDE8F09F52
:102F70002DE9F05F06460F4693469946DDF828A0F6
:102F800009E19AF8000080285CDA9AF80080B8F12C
:102F9000200F04DDA8F120001FFA80F801E04FF0B7
:102FA0000008002546E000241CE04FEA881000EBF2
:102FB00045007249095C80202041014039B17A19ED
:102FC00091B2321990B25A46FFF767F908E0CB4543
:102FD00006D07A1991B2321990B24A46FFF75DF9DC
:102FE000601CC4B2082CE0DB00241FE04FEA88100C
:102FF00000EB4500401C6149085C802121410840EC
:1030000040B17A1991B23219083290B25A46FFF79C
:1030100044F909E0CB4507D07A1991B23219083248
:1030200090B24A46FFF739F9601CC4B2082CDDDBC8
:10303000681CC5B2202DB6DB0AF1010A06F11000AA
:1030400086B2A8E04FF0000894E0C8EB081000EB4F
:1030500080004C49085C9AF80010884273D1C8EB94
:10306000081000EB80004749084440789AF80110A6
:1030700088427BD1002577E0002420E0C8EB0810CF
:1030800000EB80003F490844C01C05EB4501415C52
:1030900080202041014039B17A1991B2321990B2A1
:1030A0005A46FFF7FAF808E0CB4506D07A1991B2F4
:1030B000321990B24A46FFF7F0F8601CC4B2082CEF
:1030C000DCDB002423E0C8EB081000EB80002D4976
:1030D0000844C01C05EB4501491C415C802020418F
:1030E000014041B17A1991B23219083290B25A4670
:1030F000FFF7D3F809E0CB4507D07A1991B232191E
:10310000083290B24A46FFF7C8F8601CC4B2082CD7
:10311000D9DB002424E0C8EB081000EB800019493B
:103120000844C01C05EB4501891C415C80202041FE
:10313000014049B17A1991B23219103290B25A460F
:10314000FFF7ABF80AE011E0CB4507D07A1991B24E
:103150003219103290B24A46FFF79FF8601CC4B291
:10316000082CD8DB681CC5B2182D85DB08F10100DE
:103170001FFA80F8B8F1640F06E000003C970008E1
:10318000ED150108A2150108FFF65FAF0AF1020A6A
:1031900006F1180086B29AF8000000287FF4F1AE1C
:1031A000BDE8F09F2DE9F84F06460F469246994636
:1031B000DDF828B059E19BF80000802876DA9BF80A
:1031C0000080B8F1250F0AD1FEA0009007F11B0086
:1031D00081B24B4652463046FFF786FD9EE0B8F17D
:1031E000200F04DDA8F120001FFA80F801E04FF065
:1031F000000800258FE000241CE04FEA082000EBC7
:103200008500F149085C80212141084038B17A19D4
:1032100091B2321990B25246FFF73FF808E0CA4522
:1032200006D07A1991B2321990B24A46FFF735F8B2
:10323000601CC4B2082CE0DB00241FE04FEA082029
:1032400000EB8500401CE049095C802020410140E2
:1032500041B17A1991B23219083290B25246FFF751
:103260001CF809E0CA4507D07A1991B23219083220
:1032700090B24A46FFF711F8601CC4B2082CDDDB9F
:10328000002420E04FEA082000EB8500801CCE4996
:10329000095C80202041014049B17A1991B232196C
:1032A000103290B25246FEF7F8FF0AE03CE0CA4501
:1032B00007D07A1991B23219103290B24A46FEF70D
:1032C000ECFF601CC4B2082CDCDB00241FE04FEADA
:1032D000082000EB8500C01CBB49085C802121410F
:1032E000084040B17A1991B23219183290B2524660
:1032F000FEF7D3FF09E0CA4507D07A1991B2321917
:10330000183290B24A46FEF7C8FF601CC4B2082CBF
:10331000DDDB681CC5B2402DFFF66DAF0BF1010B74
:1033200006F1200086B2A0E04FF0000894E0C8EB60
:10333000081000EB8000A549085C9BF8001088424B
:1033400073D1C8EB081000EB8000A0490844407816
:103350009BF8011088427BD1002577E0002420E013
:10336000C8EB081000EB800098490844C01C05EB2E
:103370004501405C80212141084038B17A1991B261
:10338000321990B25246FEF788FF08E0CA4506D0CF
:103390007A1991B2321990B24A46FEF77EFF601C4C
:1033A000C4B2082CDCDB002423E0C8EB081000EBDF
:1033B000800086490844C01C05EB4501491C405C5F
:1033C00080212141084040B17A1991B23219083266
:1033D00090B25246FEF761FF09E0CA4507D07A195C
:1033E00091B23219083290B24A46FEF756FF601C7D
:1033F000C4B2082CD9DB002424E0C8EB081000EB91
:10340000800072490844C01C05EB4501891C405CE2
:1034100080212141084048B17A1991B23219103205
:1034200090B25246FEF739FF0AE011E0CA4507D0D4
:103430007A1991B23219103290B24A46FEF72DFF36
:10344000601CC4B2082CD8DB681CC5B2182D85DB03
:1034500008F101001FFA80F8B8F1640FFFF667AFBA
:103460000BF1020B06F1180086B29BF80000002851
:103470007FF4A1AEBDE8F88F2DE9F05F07468846DE
:1034800092469946002531E000242BE050490A98E5
:1034900001EBC01000EB850010F804B000261DE021
:1034A0008020304100EA0B0050B108EB050291B2D8
:1034B00007EBC402324490B25246FEF7EEFE0BE038
:1034C000CA4509D008EB050291B207EBC4023244A9
:1034D00090B24A46FEF7E1FE701CC6B2082EDFDB52
:1034E000601CC4B2042CD1DB681CC5B2202DCBDB20
:1034F000BDE8F09F2DE9F0410446002510E00026CC
:103500000AE014F8017B14F8018B3846FEF756FDEB
:103510004046FEF753FD761CB6F5A07FF1DB6D1C2F
:10352000F02DECDBBDE8F0812DE9F04706460F46B3
:1035300091469846002441E0002519E0254810F8FE
:10354000141080202841014039B13A1991B2721902
:1035500090B24A46FEF7A1FE08E0C14506D03A19EE
:1035600091B2721990B24246FEF797FE681CC5B23E
:10357000082DE3DB00251DE0012000EB4400154988
:10358000085C80212941084040B13A1991B2721972
:10359000083290B24A46FEF780FE09E0C14507D0E6
:1035A0003A1991B27219083290B24246FEF775FE8E
:1035B000681CC5B2082DDFDB601CC4B2182CBBDB55
:1035C000BDE8F08725000000FDAE0008A215010847
:1035D000FE0D0108761701082DE9F04706460F4653
:1035E00091469846DDF820A00025BCE000241EE0AE
:1035F00005EB8500CAEB0A1100EBC100C749095C65
:1036000080202041014039B17A1991B2321990B22B
:103610004A46FEF742FE08E0C14506D07A1991B24B
:10362000321990B24246FEF738FE601CC4B2082C34
:10363000DEDB002421E005EB8500CAEB0A1100EB7C
:10364000C100401CB549095C80202041014041B1C6
:103650007A1991B23219083290B24A46FEF71DFE2D
:1036600009E0C14507D07A1991B23219083290B2F7
:103670004246FEF712FE601CC4B2082CDBDB0024BD
:1036800021E005EB8500CAEB0A1100EBC100801CAC
:10369000A249095C80202041014041B17A1991B2D0
:1036A0003219103290B24A46FEF7F7FD09E0C145E3
:1036B00007D07A1991B23219103290B24246FEF711
:1036C000ECFD601CC4B2082CDBDB002421E005EB20
:1036D0008500CAEB0A1100EBC100C01C8F49085CD1
:1036E00080212141084040B17A1991B23219183233
:1036F00090B24A46FEF7D1FD09E0C14507D07A19DC
:1037000091B23219183290B24246FEF7C6FD601CE3
:10371000C4B2082CDBDB002421E005EB8500CAEBFA
:103720000A1100EBC100001D7C49085C8021214189
:10373000084040B17A1991B23219203290B24A460B
:10374000FEF7ABFD09E0C14507D07A1991B23219F5
:10375000203290B24246FEF7A0FD601CC4B2082C95
:10376000DBDB681CC5B2182DFFF640AFBDE8F08763
:103770002DE9F04706460F4691469846DDF820A011
:103780000025C6E0002420E005EB85000AEBCA0115
:1037900001EB0A1100EBC1006149095C8020204166
:1037A000014039B17A1991B2321990B24A46FEF706
:1037B00074FD08E0C14506D07A1991B2321990B271
:1037C0004246FEF76AFD601CC4B2082CDCDB002414
:1037D00023E005EB85000AEBCA0101EB0A1100EBBF
:1037E000C100401C4E49095C80202041014041B18C
:1037F0007A1991B23219083290B24A46FEF74DFD5D
:1038000009E0C14507D07A1991B23219083290B255
:103810004246FEF742FD601CC4B2082CD9DB0024EE
:1038200023E005EB85000AEBCA0101EB0A1100EB6E
:10383000C100801C3A49085C80212141084040B108
:103840007A1991B23219103290B24A46FEF725FD2C
:1038500009E0C14507D07A1991B23219103290B2FD
:103860004246FEF71AFD601CC4B2082CD9DB0024C6
:1038700023E005EB85000AEBCA0101EB0A1100EB1E
:10388000C100C01C2649095C80202041014041B193
:103890007A1991B23219183290B24A46FEF7FDFCFD
:1038A00009E0C14507D07A1991B23219183290B2A5
:1038B0004246FEF7F2FC601CC4B2082CD9DB00249F
:1038C00023E005EB85000AEBCA0101EB0A1100EBCE
:1038D000C100001D1249095C80202041014041B116
:1038E0007A1991B23219203290B24A46FEF7D5FCCD
:1038F00009E0C14507D07A1991B23219203290B24D
:103900004246FEF7CAFC601CC4B2082CD9DB681C16
:10391000C5B2282DFFF636AFBDE8F087A71701081E
:10392000F01A010810B504466FF0040000F028FDFD
:10393000E11704EB5171C1F3C701394A1170104608
:10394000007800EB4001C1EBC0104FF6FF7101EAB7
:10395000C0003449088010BD0146314A12784A43FC
:103960004FF0E0235A6100229A611A46126942F030
:1039700001021A6100BF4FF0E022106900F001025D
:103980001AB100F48032002AF5D04FF0E02212691B
:1039900022F001024FF0E0231A6100229A61704781
:1039A0000146204A12884A434FF0E0235A61002220
:1039B0009A611A46126942F001021A6100BF4FF083
:1039C000E022106900F001021AB100F48032002AEE
:1039D000F5D04FF0E022126922F001024FF0E0230F
:1039E0001A6100229A61704770B504464FF407705F
:1039F00094FBF0F0C6B24FF4077094FBF0F100FBBB
:103A0000114085B205E04FF40770FFF7C9FF701E43
:103A1000C6B2002EF7D115B12846FFF7C1FF70BD21
:103A2000F0000020F200002000BF704700BFFE4AF7
:103A3000128802F04002002AF9D0C2B2FA4B9A80F2
:103A4000704710B588B004460121084600F0DAFF3F
:103A50000121102001F030F807220921F34800F07D
:103A6000BEFD07220A21F14800F0B9FD02208DF8C1
:103A70001C008DF81D0000208DF81E0001208DF81F
:103A80001F004002069006A9E84800F01DFD4FF413
:103A90008060069006A9E54800F016FD029400201B
:103AA000ADF80C00ADF80E00ADF81000ADF8140044
:103AB0000C20ADF8120002A9DB4801F0A8F90121A1
:103AC000D94801F02CFA012240F22551D64801F0E4
:103AD000DCFA25208DF8040000208DF805008DF813
:103AE000060001208DF8070001A800F0FCFB08B0DB
:103AF00010BD10B540F22551CB4801F001FB002864
:103B000036D040F22551C84801F035FBC64801F0D7
:103B100035FAC4B2C6480078642802DB0020C449E4
:103B20000870C348007810B9FE2C00D010BDC04802
:103B30000078012801D1BF480470BD4801780078A1
:103B4000401CBB4A1070BC48445410460078022800
:103B50000EDD10460078B7490978884208DB01205D
:103B6000B6490870002240F22551AF4801F08DFAA5
:103B700000BFDBE770B504460D462946204601F03C
:103B8000F9F900BF8021204601F0A4FA0028F9D0FD
:103B900070BD2DE9F04107460D461646002405E0AC
:103BA000295D3846FFF7E6FF601CC4B2B442F7DB7C
:103BB00000BF4021384601F08DFA0028F9D0BDE859
:103BC000F08170B506460C46002500BF615D3046A9
:103BD000FFF7D0FF6D1C605D0028F7D100BF4021CA
:103BE000304601F077FA0028F9D070BD2DE9F04F8A
:103BF00089B0044625786678A7780F2D02DA4FF051
:103C0000000803E0A5F10F0000F0FF0805F10F0028
:103C1000F02802DD4FF0F00903E005F10F0000F09D
:103C2000FF091E2E02DA4FF0000A03E0A6F11E0083
:103C300000F0FF0A06F11E00F02802DD4FF0F00B45
:103C400003E006F11E0000F0FF0B1E2F02DA002039
:103C5000089003E0A7F11E00C0B2089007F11E0013
:103C6000F02802DDF020079003E007F11E00C0B24B
:103C700007901822724901A802F07FFC8DF8048099
:103C80008DF805908DF806A08DF807B008988DF88E
:103C9000080007988DF809006A48006803906A4890
:103CA00000680490182201A9684802F066FC09B077
:103CB000BDE8F08F2DE9F04F87B00027B846B94630
:103CC0006E2004900390822002900190049D1FE0DA
:103CD000039E18E0C5EB05115D4A02EB411131F876
:103CE000160006A9FCF72CFC05A906A8FCF734FC75
:103CF0009DF8140007449DF8150080449DF81600B7
:103D00008144701C86B201988642E3DB681C85B250
:103D100002988542DCDB4FF4C874B7FBF4F000F086
:103D2000FF0AB8FBF4F000F0FF0BB9FBF4F0C0B2EF
:103D30000090484880F800A080F801B045490098FC
:103D4000887007B0BDE8F08F00B591B03B480078AF
:103D500008B911B000BD0120FCF776FF3648807825
:103D600010285FD2DFE800F008121C408CB3D8FEA8
:103D7000FCFBFAF9F8F7F6F50120374908702E48F0
:103D8000827836A104A802F021FBC5E10020324967
:103D900008702948827831A104A802F017FBBBE122
:103DA0002D480078C8B92E4890ED000AF2EE040ABA
:103DB00030EE600A80ED000A90ED000AB5EEC00A10
:103DC000F1EE10FA03D29FED270A80ED000A244895
:103DD00090ED000A0420FDF7B2FE174882781FA17B
:103DE00004A802F0F3FA97E11B480078D8B91C4800
:103DF00090ED000AF2EE040A30EE200A80ED000A8F
:103E000090ED000ADFED180AB4EEE00AF1EE10FAC8
:103E100003DD9FED150A80ED000A114890ED000AC0
:103E2000042023E077E123E000100140000002407D
:103E3000F8000020FA0000203CC30120F900002017
:103E4000481D0108FC00002000010020A0C3012043
:103E50003A01002004010020C500002025640A006A
:103E6000D00000200000000000003443FDF767FE92
:103E7000DA488278AFF21C0104A802F0A7FA4BE1FD
:103E8000D7480078D8B9D74890ED000AF2EE040A76
:103E900030EE200A80ED000A90ED000A5FED0E0A78
:103EA000B4EEE00AF1EE10FA03DD1FED110A80ED29
:103EB000000ACC4890ED000A0320FDF740FEC748F9
:103EC0008278AFF2680104A802F080FA24E1C448C5
:103ED0000078C8B9C34890ED000AF2EE040A30EE4B
:103EE000600A80ED000A90ED000AB5EEC00AF1EE1E
:103EF00010FA03D21FED250A80ED000AB94890EDB3
:103F0000000A0320FDF71BFEB4488278AFF2B4012B
:103F100004A802F05BFAFFE0B048C078B24908603C
:103F2000AE480079B149086008460168AE480068AB
:103F3000FDF76EFBAC480068AD498860AB4800688F
:103F4000C860A6488278AFF2EC0104A802F03EFAFD
:103F5000E2E0B1E0D7E089E06CE060E054E030E01E
:103F60001FE0FFE7002014231A466E2100909620E0
:103F7000FEF768FBFFF79EFE9E48FFF737FE012025
:103F80009D4908709B4880789A494978CDE900108E
:103F9000984803789148827898A104A802F016FA0C
:103FA000BAE08E48C078994908700020924908709C
:103FB0008A4882789548037895A104A802F006FA09
:103FC000AAE08648C078944908708448007948700F
:103FD00082484079887087498F48FCF7BDFA854848
:103FE000FFF704FE0120844908708B4880788A49D5
:103FF0004978CDE9001088480378784882787FA115
:1040000004A802F0E3F987E00120844908707348AE
:104010008278AFF2B81104A802F0D8F97CE0002051
:104020007E4908706D488278AFF2D01104A802F082
:10403000CDF971E09FED7A0A6A4880ED000A9FEDA4
:10404000780A784880ED000A9FED750A0320FDF795
:1040500076FD9FED730A0420FDF771FD5F488278BD
:10406000AFF2082104A802F0B1F955E000205C4944
:1040700008706149087069490870644908709FEDCB
:10408000680A584880ED000A9FED650A654880ED92
:10409000000A9FED630A0320FDF751FD9FED600AC2
:1040A0000420FDF74CFD4D4882785848037858A10C
:1040B00004A802F08BF92FE04F48007870B95348FC
:1040C000007856490978CDE9001044488278444880
:1040D000037855A104A802F079F913E045488078E7
:1040E00044494978434A12784C4B1B78CDE9003259
:1040F000CDE9021039488278394803784EA104A8E6
:1041000002F064F908E035488278AFF2B02104A8E3
:1041100002F05CF900E000BF00BF04A94C48FFF7C3
:1041200050FD00204B4908704B490870012240F2B5
:104130002551474800F0A9FF00BF0AE600B52DED64
:10414000048B95B035480078002842D04348006879
:1041500018B33448006803F093FE41EC180B214873
:10416000006803F08DFE41EC190B3D48C0683C49E6
:1041700089683B4A52683A4B1B68CDE90432CDE965
:1041800006108DED028B8DED009B364803881022C2
:1041900035A108A802F01AF916E02248006803F0D9
:1041A0006FFE41EC180B0F48006803F069FE41EC0C
:1041B000190B8DED028B8DED009B2A480388102290
:1041C00031A108A802F002F908A92148FFF7F9FC7B
:1041D00000BF15B0BDEC048B00BD00003CC3012046
:1041E000C5000020CC000020FC00002000010020C1
:1041F000A0C30120040100203900002025642025EF
:10420000642025642025640A000000003800002096
:1042100025642025640A000007010020FB0000201F
:104220000000B442D00000202564202564202564CD
:1042300020302025640A00002564202564202564A0
:1042400020312025642025642025640A0000000018
:1042500000100140F8000020F90000203400002088
:104260003C000020C6000020256420256420252E67
:10427000316620252E3166203120256420256420DA
:1042800025642025640A0000256420256420252E4D
:10429000316620252E316620300A0000094880470B
:1042A00009480047FEE7FEE7FEE7FEE7FEE7FEE718
:1042B000FEE7FEE7FEE7FEE704480549054A064B30
:1042C000704700000D0400088901000818C401208F
:1042D00018CA012018C6012018C60120324901431E
:1042E000324A1160704770B5002100230F22C47854
:1042F0001CB32E4C246804F4E064C4F5E064C4F3F9
:104300000721C1F10404E3B20A4144789C40E1B2C0
:104310008478144021430C07210E254C0578615503
:10432000047804F01F050124AC4005786D11AD0040
:1043300005F1E025C5F8004109E0047804F01F0507
:104340000124AC401B4D0678761145F8264070BD1F
:10435000194A0A400243154B1B1F1A60704739B1B6
:10436000124A121D12680243104B1B1D1A6006E010
:104370000E4A121D126882430C4B1B1D1A607047B7
:10438000042808D14FF0E021096941F004014FF001
:10439000E022116107E04FF0E021096921F00401FA
:1043A0004FF0E022116170470000FA050CED00E0CB
:1043B00000E400E080E100E080FFFF1F10B504464C
:1043C0009848844208D10121084600F086FB00216C
:1043D000012000F082FB76E09348844208D101215D
:1043E000022000F07AFB0021022000F076FB6AE058
:1043F0008E48844208D10121042000F06EFB002188
:10440000042000F06AFB5EE08948844208D1012163
:10441000082000F062FB0021082000F05EFB52E063
:104420008448844208D10121102000F056FB00216D
:10443000102000F052FB46E07F48844208D1012161
:10444000202000F04AFB0021202000F046FB3AE04B
:104450007A48844208D10121402000F03EFB00212F
:10446000402000F03AFB2EE07548844208D101213B
:10447000802000F032FB0021802000F02EFB22E0A3
:104480007048844208D10121801500F026FB0021EC
:10449000A01500F022FB16E06B48844208D10121F0
:1044A000401500F01AFB0021601500F016FB0AE031
:1044B0006648844207D10121001500F00EFB00215F
:1044C000201500F00AFB10BDF0B50A4600210023BC
:1044D000002400BF3DE0012505FA01F3156805EA57
:1044E00003049C4234D105684F000326BE40B54307
:1044F000056015794E00B5400668354305601579AD
:10450000012D02D01579022D16D185684F000326A2
:10451000BE40B543856055794E00B5408668354349
:104520008560456801268E40B543456045689679AB
:104530008E40B6B235434560C5684F000326BE4085
:10454000B543C560D5794E00B540C6683543C560F2
:10455000491C1029BFD3F0BD4FF6FF710160002147
:10456000017141718171C171704708B54FF480329A
:104570000092009A0A430092009AC261C161009AB7
:10458000C261C2690092C269009208BD0246002061
:1045900013690B400BB1012000E000207047014679
:1045A000086980B270470246002053690B400BB186
:1045B000012000E0002070470146486980B2704742
:1045C00001837047418370470AB1018300E0418352
:1045D00070474161704742694A4042617047F0B597
:1045E000002300244D07ED0E02FA05F3CE1000F172
:1045F000200555F826504E07F70E0F26BE40B5434E
:10460000CF1000F1200646F82750CE1000F120050B
:1046100055F8265045EA0304CE1000F1200545F870
:104620002640F0BD000002400004024000080240A5
:10463000000C02400010024000140240001802402A
:10464000001C0240002002400024024000280240DA
:10465000F948006840F00100F74908600020F64979
:1046600008310860F4480068F4490840F2490860DD
:10467000F348091D0860F348EF4984310860F048A9
:104680001038091D0860EC48006820F48020EA49D1
:1046900008600020E8490C310860E7498C31086067
:1046A00070470021E44A921C11701146087070474F
:1046B00010B501460022002300204A11012A02D130
:1046C000DD4C236808E0022A03D1DB4C70342368F8
:1046D00002E0D94C7434236801F01F020124944095
:1046E0001C400CB1012000E0002010BD38B50020B6
:1046F00000900024002500BF3120FFF7D9FF0546B8
:104700000098401C00900098B0F5A04F01D0002DFB
:10471000F2D03120FFF7CCFF08B1012400E00024E3
:10472000204638BD01460020C34A106820F0F8003A
:1047300040EAC10010607047C3490860704700211B
:10474000BD4A703211701170012802D004280AD1BC
:1047500004E00121B84A7032117005E00521B64A23
:104760007032117000E000BF00BF7047B7490860A9
:10477000704770B5049C41EA82150126C6EB5306CA
:1047800045EA0645054345EA0465AB4E361D3560EE
:1047900070BDAD4908667047820142EA0172A64BBE
:1047A00084331A607047A8498866704710B5830142
:1047B00043EA016343EA02739F4C8834236010BDCF
:1047C000A14908677047A049C864704702460020A5
:1047D000994B0833186820F0EC6042EA0103184353
:1047E000954B08331860704702460020924B0833FF
:1047F000186820F0784042EA010318438E4B0833D2
:1048000018607047014600208B4A0832106820F07B
:10481000030008431060704787480830006800F0C4
:104820000C00704701460020834A0832106820F0CF
:10483000F000084310607047014600207E4A0832AD
:10484000106820F4E05008431060704701460020D3
:10485000794A0832106820F4604040EAC1001060D4
:104860007047F0B500210022002402250026022313
:10487000714F08373F6807F00C0121B1042905D0BA
:10488000082937D105E0724F076036E0714F0760A5
:1048900033E0694F3F1D3F68C7F38056664F3F1DA9
:1048A0003F6807F03F036EB16A4FB7FBF3F7DFF8DD
:1048B00088C10CF1040CDCF800C0CCF3881C07FBA9
:1048C0000CF40CE0624FB7FBF3F7DFF86CC10CF1AE
:1048D000040CDCF800C0CCF3881C07FB0CF4564F2A
:1048E0003F1D3F68C7F301477F1C7D00B4FBF5F710
:1048F000076002E0564F076000BF00BF4E4F083709
:104900003F6807F0F0010909534F7A5C0768D74008
:104910004760494F08373F6807F4E051890A4E4F16
:104920007A5C4768D7408760434F08373F6807F491
:104930006041490B484F7A5C4768D740C760F0BD7B
:10494000002100F44072B2F5407F0AD13A4A0832A1
:10495000116821F4F811414A02401143364A0832E5
:104960001160354A70321268C0F30B031A43324BA0
:1049700070331A60704735494439086070473349CD
:10498000403908607047364908607047014600208A
:10499000294A8C32106820F01F004A1E1043264A14
:1049A0008C321060704701460020234A8C32106818
:1049B00020F4F8504A1E40EA02201F4A8C32106050
:1049C0007047014600201C4A8C32106820F44010C9
:1049D00008431060704701460020174A8C32106867
:1049E00020F4400008431060704701460020124A3E
:1049F0008C32106820F44030084310607047194929
:104A00000860704739B10C4A3032126802430A4BD1
:104A100030331A6006E0084A303212688243064B8F
:104A200030331A607047F9B1034A343212680243D6
:104A3000014B34331A601CE000380240FFFFF6EAF5
:104A4000103000240030002000004742800E474212
:104A50000024F40000127A000A010020FFFCFF0F7E
:104A60005C014742E01147428F4A126882438E4BF5
:104A70001A60704739B18C4A121D126802438A4B82
:104A80001B1D1A6006E0884A121D12688243864B7D
:104A90001B1D1A60704739B1834A0C3212680243F9
:104AA000814B0C331A6006E07F4A0C321268824355
:104AB0007D4B0C331A60704739B17B4A1032126853
:104AC0000243794B10331A6006E0774A10321268BD
:104AD0008243754B10331A60704739B1724A243AD9
:104AE00012680243704B243B1A6006E06E4A243A77
:104AF000126882436C4B243B1A60704739B16A4A92
:104B0000203A12680243684B203B1A6006E0664A6E
:104B1000203A12688243644B203B1A60704739B1D7
:104B2000614A1C3A126802435F4B1C3B1A6006E064
:104B30005D4A1C3A126882435B4B1C3B1A6070470B
:104B400039B1594A143A12680243574B143B1A6060
:104B500006E0554A143A12688243534B143B1A60DC
:104B6000704739B1504A103A126802434E4B103B1D
:104B70001A6006E04C4A103A126882434A4B103BD6
:104B80001A60704739B1484A1C3212680243464BDA
:104B90001C331A6006E0444A1C3212688243424BBE
:104BA0001C331A60704739B13F4A20321268024301
:104BB0003D4B20331A6006E03B4A203212688243A4
:104BC000394B20331A60704739B1374A24321268A2
:104BD0000243354B24331A6006E0334A243212680C
:104BE0008243314B24331A60704739B12E4A2C323C
:104BF000126802432C4B2C331A6006E02A4A2C32EE
:104C000012688243284B2C331A60704739B1264A08
:104C1000303212680243244B30331A6006E0224AD5
:104C2000303212688243204B30331A6070470128BB
:104C300008D11D493C31096841F008011A4A3C324B
:104C4000116007E018493C31096821F00801164A53
:104C50003C321160704739B1134A273A1278024347
:104C6000114B273B1A7006E00F4A273A127882430D
:104C70000D4B273B1A7070470B484030006840F0DE
:104C80008070094940310860704701460020064A9B
:104C9000283A12680A400AB1012000E0002070475B
:104CA00001492639087070473438024010B5012197
:104CB0008803FFF756FF00214FF48040FFF751FFB4
:104CC00010BD1C49086070471B490862704730B529
:104CD00000228B071C0F0F2303FA04F2154B083335
:104CE0008C1053F824309343124C08348D1044F840
:104CF000253023468C1053F824308C07240F00FAFB
:104D000004F423430B4C08348D1044F8253030BD97
:104D10000949DC3108607047084908607047002085
:104D200004492031096801F4807109B1012000E0D3
:104D3000002070470038014000002742000427424D
:104D400010B50446FA48844208D101211020FFF72B
:104D500008FF00211020FFF704FF57E0F5488442C8
:104D600009D101214804FFF7EBFE00214FF4003088
:104D7000FFF7E6FE4AE0F048844209D101218804A9
:104D8000FFF7DEFE00214FF48020FFF7D9FE3DE063
:104D9000EA48844209D10121C804FFF7D1FE00216D
:104DA0004FF40020FFF7CCFE30E0E548844209D103
:104DB00001210805FFF7C4FE00214FF48010FFF722
:104DC000BFFE23E0DF48844208D101212020FFF705
:104DD000C8FE00212020FFF7C4FE17E0DA48844215
:104DE00009D101218807FFF7ABFE00214FF0804079
:104DF000FFF7A6FE0AE0D548844207D1012140050D
:104E0000FFF79EFE00216005FFF79AFE10BD2DE919
:104E1000FF4705460E460024A14600BFA046B089C4
:104E200000B100BF2C8A24F44054F08804432C8243
:104E3000AC8941F20C608443B088318908437189A0
:104E400008430443AC81AC8A24F44074B089044321
:104E5000AC826846FFF705FDB548854202D0B948E7
:104E6000854202D1DDF80C9001E0DDF80890A889B8
:104E700000F4004040B109EBC90000EB09103168B3
:104E80004900B0FBF1F707E009EBC90000EB09109E
:104E900031688900B0FBF1F76420B7FBF0F0040142
:104EA0002009642101FB1078A88900F4004040B17A
:104EB000322000EBC800B0FBF1F000F00700044323
:104EC00008E0322000EB08106421B0FBF1F000F0A4
:104ED0000F0004432C81BDE8FF874FF41651016099
:104EE00000218180C18001810C21418100218181CB
:104EF000704710B502460020108A20F470600B88BD
:104F00004C8823438C882343CC8823431843108246
:104F100010BD0021018041808180C180704721B196
:104F2000828942F40052828104E082894DF6FF7347
:104F30001A4082817047028B02F47F420283028B07
:104F40000A430283704721B1828942F40042828180
:104F500003E08289C2F30E028281704721B1828A06
:104F600042F40062828204E0828A4FF2FF731A40A8
:104F700082827047C1F308028280704701468888A8
:104F8000C0F308007047028A4FF6F0731A4002829D
:104F9000028A0A430282704721B1828942F00202EA
:104FA000828104E082894FF6FD731A408281704746
:104FB00082894FF2FF731A40828182890A4382817B
:104FC0007047028A4FF6DF731A400282028A0A4350
:104FD0000282704721B1028A42F48042028204E0D8
:104FE000028A4BF6FF731A4002827047818941F0B2
:104FF00001018181704721B1828A42F008028282D8
:1050000004E0828A4FF6F7731A4082827047028B5F
:10501000D2B20283028B42EA01220283704721B19D
:10502000828A42F02002828204E0828A4FF6DF7395
:105030001A408282704721B1828A42F01002828235
:1050400004E0828A4FF6EF731A4082827047828AA8
:105050004FF6FB731A408282828A0A43828270472B
:1050600021B1828A42F00202828204E0828A4FF6F3
:10507000FD731A40828270471AB1838A0B43838280
:1050800002E0838A8B4383827047F0B50346002495
:1050900000260025002040F66A17B94200D100BF63
:1050A0001846C1F3421401F01F06012707FA06F55E
:1050B000012C01D10C3004E0022C01D1103000E0B1
:1050C00014301AB107682F43076002E00768AF4346
:1050D0000760F0BD02460020B1F5007F00D100BF9F
:1050E00013880B400BB1012000E00020704701F451
:1050F0000072B2F5007F00D100BFCA430280704742
:1051000070B50246002400230025002040F66A16F0
:10511000B14200D100BFC1F3421501F01F030126C7
:1051200006FA03F3012D13D19689334017E00000EE
:10513000001001400044004000480040004C004086
:10514000005000400014014000780040007C004006
:10515000022D02D1168A334001E0968A33400C12A8
:10516000012606FA04F41688344013B10CB101206C
:1051700000E0002070BD10B50022002340F66A1444
:10518000A14200D100BF0A1201249440A3B2DC4323
:10519000048010BD002041490860091D0860091DF8
:1051A0000860091D08603E483C491431086070479A
:1051B00000213A498279002A3AD00A4612680368E7
:1051C0009A430B461A600A1D126803689A430B1D26
:1051D0001A60027911440A6803681A430A602F4A68
:1051E0000832126803689A432C4B08331A601A1D60
:1051F000126803689A43294B0C331A604279102ACB
:105200000ED11A1F126803681A43244B08331A6020
:105210001A1D126803681A43204B0C331A600DE004
:105220001E49427911440A6803681A430A6005E07E
:10523000027911440A6803689A430A6070470021A2
:10524000016001710C214171002181717047134986
:10525000103109680143114A10321160704701464C
:1052600000200E4A143212680A400AB1012000E000
:10527000002070470949143108607047014600203A
:10528000064A143212680A400AB1012000E00020E8
:10529000704702491431086070470000003C01402B
:1052A000FFFF7F0010B50446FE48844208D101216B
:1052B0000846FFF756FC00210120FFF752FC9DE055
:1052C000B4F1804F08D101210846FFF739FC0021D5
:1052D0000120FFF735FC91E0F348844208D1012119
:1052E0000220FFF72DFC00210220FFF729FC85E0BA
:1052F000EE48844208D101210420FFF721FC00215F
:105300000420FFF71DFC79E0E948844208D101211F
:105310000820FFF715FC00210820FFF711FC6DE0C5
:10532000E448844208D101211020FFF709FC002144
:105330001020FFF705FC61E0DF48844208D101211D
:105340002020FFF7FDFB00212020FFF7F9FB55E0AF
:10535000DA48844208D101210220FFF702FC002133
:105360000220FFF7FEFB49E0D548844209D1012124
:105370000804FFF7F6FB00214FF48030FFF7F1FB44
:105380003CE0D048844209D101214804FFF7E9FB01
:1053900000214FF40030FFF7E4FB2FE0CA488442BD
:1053A00009D101218804FFF7DCFB00214FF48020A4
:1053B000FFF7D7FB22E0C548844208D101214020F5
:1053C000FFF7BEFB00214020FFF7BAFB16E0C04804
:1053D000844208D101218020FFF7B2FB0021802008
:1053E000FFF7AEFB0AE0BB48844207D101218015DC
:1053F000FFF7A6FB0021A015FFF7A2FB10BD0022BE
:105400000288A84B98420ED0AC4B98420BD0B0F11A
:10541000804F08D0A44B984205D0A44B984202D0AC
:10542000A34B984204D14FF68F731A404B881A430E
:10543000A04B984207D0A04B984204D04FF6FF43B0
:105440001A400B891A4302804B68C3620B8803859C
:10545000944B984202D0994B984201D18B7A0386A3
:105460000123838270474FF0FF31416000210180AA
:1054700001814180817270470185828270470A46AE
:10548000002101884FF68F73194011430180704746
:1054900041627047C16270470146486A70470146E1
:1054A000088D704721B1028842F00202028004E0B8
:1054B00002884FF6FD731A400280704721B10288BE
:1054C00042F00402028004E002884FF6FB731A40A7
:1054D0000280704721B1028842F08002028004E01D
:1054E00002884FF67F731A400280704702884FF699
:1054F000F7731A40028002880A43028070470288CC
:105500004FF6FF431A40028002880A430280704728
:1055100021B1028842F00102028004E002884FF6C5
:10552000FE731A400280704770B5002400220023E9
:10553000058C4FF6FE7635400584028C8388048BFB
:105540004FF68F752C40B51E2C400D882C43751ED0
:105550002A408D892A434D882A43524DA84202D0C1
:10556000564DA84213D14FF6F7752A40CD892A43EC
:105570004FF6FB752A408D882A434FF6FF652B4076
:105580004FF6FF552B400D8A2B434D8A2B438380CA
:1055900004838D684563028470BD70B500240022C9
:1055A0000023058C4FF6EF7635400584028C838806
:1055B000048B48F6FF752C404FF6FF452C400D88B4
:1055C0004FF6FF7606EA05252C434FF6DF752A4095
:1055D0008D8906EA05152A434D8806EA05152A43F2
:1055E000304DA84202D0354DA8421DD14FF67F75EF
:1055F0002A40CD894FF6FF7606EA05152A434FF675
:10560000BF752A408D8806EA05152A434FF6FF35F7
:105610002B404FF2FF752B400D8A06EA85052B4380
:105620004D8A06EA85052B43838004838D68856354
:10563000028470BD70B5002400220023058C4FF653
:10564000FF6635400584028C8388848B4FF68F7506
:105650002C404FF6FC752C400D882C434FF6FF551F
:105660002A408D894FF6FF7606EA05252A434D88A4
:1056700006EA05252A430B4DA84202D00F4DA84249
:1056800038D14FF2FF752A40CD894FF6FF7606EAF2
:1056900005252A434FF6FF352A408D8806EA052561
:1056A0002A4319E0000001400004004000080040C7
:1056B000000C0040001000400014004000040140B5
:1056C00000400140004401400048014000180040F3
:1056D000001C0040002000404EF6FF752B404DF6A8
:1056E000FF752B400D8A06EA05152B434D8A06EA05
:1056F00005152B43838084838D68C563028470BD48
:1057000070B5002200230024058C4EF6FF7635404C
:105710000584038C8488828B48F6FF752A404FF6F7
:10572000FF452A400D884FF6FF7606EA05252A43F5
:105730004DF6FF752B408D8906EA05352B434D88C4
:1057400006EA05352B43FE4DA84202D0FD4DA84286
:1057500008D14BF6FF752C400D8A4FF6FF7606EA0E
:1057600085152C43848082838D680564038470BD15
:10577000002101804180818081608181C18101821D
:105780004182704770B50346002000241846183047
:1057900001258D40ACB21D8CA5431D8409B108299B
:1057A0000AD100EB610005684FF68F763540056041
:1057B0000568154305600FE00D1FC5F34E0528442D
:1057C000056848F6FF763540056005684FF6FF76B8
:1057D00006EA02263543056070BD41637047816368
:1057E0007047C1637047016470470A460021018B0E
:1057F0004FF68F7319401143018370470A46002109
:10580000018B48F6FF7319404FF6FF7303EA02233A
:105810001943018370470A460021818B4FF68F732D
:1058200019401143818370470A460021818B48F655
:10583000FF7319404FF6FF7303EA02231943818374
:1058400070470A460021018B4FF6F7731940114348
:10585000018370470A460021018B4FF2FF73194004
:105860004FF6FF7303EA02231943018370470A4688
:105870000021818B4FF6F7731940114381837047E4
:105880000A460021818B4FF2FF7319404FF6FF73D8
:1058900003EA02231943818370470A460021018BE2
:1058A0004FF6FB7319401143018370470A460021EC
:1058B000018B4FF6FF3319404FF6FF7303EA0223C3
:1058C0001943018370470A460021818B4FF6FB7311
:1058D00019401143818370470A460021818B4FF69E
:1058E000FF3319404FF6FF7303EA02231943818304
:1058F00070470A460021018B4FF67F731940114310
:10590000018370470A460021018BC1F30E014FF657
:10591000FF7303EA02231943018370470A460021FB
:10592000818B4FF67F7319401143818370470A467C
:105930000021818BC1F30E014FF6FF7303EA0223AE
:105940001943818370470A460021018C4FF6FD738D
:1059500019401143018470470A460021018C4FF61B
:10596000F77319401143018470470A460021018CE6
:105970004FF6DF7319404FF6FF7303EA0213194322
:10598000018470470A460021018C4FF67F7319404D
:105990004FF6FF7303EA02131943018470470A4666
:1059A0000021018C4FF6FF5319404FF6FF7303EAB5
:1059B00002231943018470470A460021018C4FF2EB
:1059C000FF7319404FF6FF7303EA02231943018462
:1059D00070470A460021018C4DF6FF7319404FF6BF
:1059E000FF7303EA023319430184704730B5002383
:1059F00001248C40A3B2048C9C430484048C02FADE
:105A000001F5ADB22C43048430BD30B5002304242D
:105A10008C40A3B2048C9C430484048C02FA01F5EC
:105A2000ADB22C43048430BD828B4FF2FF331A4059
:105A30008283828B4FF6FF7303EA01231A4382832A
:105A40007047F0B50C461546002100220026078C51
:105A50004EF6FF7C07EA0C070784818B028C4FF619
:105A6000FF7707EA043640F6FF4739404FF6FF77E5
:105A700007EA052739434FF6FF7707EA033739432B
:105A800045F6FF773A4046F480573A4381830284D3
:105A9000F0BD828B4FF6F3731A408283828B0A43E8
:105AA00082837047F0B50C4615460021002200267F
:105AB000078C4FF6FF6C07EA0C070784818B028C7A
:105AC0004FF6FF7707EA04264FF60C7739404FF67A
:105AD000FF7707EA03172F4339434FF2FF573A4046
